{
  "_format": "hh-sol-artifact-1",
  "contractName": "anime_nft",
  "sourceName": "contracts/anime_nft.sol",
  "abi": [
    {
      "inputs": [],
      "stateMutability": "nonpayable",
      "type": "constructor"
    },
    {
      "inputs": [],
      "name": "ApprovalCallerNotOwnerNorApproved",
      "type": "error"
    },
    {
      "inputs": [],
      "name": "ApprovalQueryForNonexistentToken",
      "type": "error"
    },
    {
      "inputs": [],
      "name": "BalanceQueryForZeroAddress",
      "type": "error"
    },
    {
      "inputs": [],
      "name": "MintERC2309QuantityExceedsLimit",
      "type": "error"
    },
    {
      "inputs": [],
      "name": "MintToZeroAddress",
      "type": "error"
    },
    {
      "inputs": [],
      "name": "MintZeroQuantity",
      "type": "error"
    },
    {
      "inputs": [],
      "name": "OwnerQueryForNonexistentToken",
      "type": "error"
    },
    {
      "inputs": [],
      "name": "OwnershipNotInitializedForExtraData",
      "type": "error"
    },
    {
      "inputs": [],
      "name": "TransferCallerNotOwnerNorApproved",
      "type": "error"
    },
    {
      "inputs": [],
      "name": "TransferFromIncorrectOwner",
      "type": "error"
    },
    {
      "inputs": [],
      "name": "TransferToNonERC721ReceiverImplementer",
      "type": "error"
    },
    {
      "inputs": [],
      "name": "TransferToZeroAddress",
      "type": "error"
    },
    {
      "inputs": [],
      "name": "URIQueryForNonexistentToken",
      "type": "error"
    },
    {
      "anonymous": false,
      "inputs": [
        {
          "indexed": true,
          "internalType": "address",
          "name": "owner",
          "type": "address"
        },
        {
          "indexed": true,
          "internalType": "address",
          "name": "approved",
          "type": "address"
        },
        {
          "indexed": true,
          "internalType": "uint256",
          "name": "tokenId",
          "type": "uint256"
        }
      ],
      "name": "Approval",
      "type": "event"
    },
    {
      "anonymous": false,
      "inputs": [
        {
          "indexed": true,
          "internalType": "address",
          "name": "owner",
          "type": "address"
        },
        {
          "indexed": true,
          "internalType": "address",
          "name": "operator",
          "type": "address"
        },
        {
          "indexed": false,
          "internalType": "bool",
          "name": "approved",
          "type": "bool"
        }
      ],
      "name": "ApprovalForAll",
      "type": "event"
    },
    {
      "anonymous": false,
      "inputs": [
        {
          "indexed": true,
          "internalType": "uint256",
          "name": "fromTokenId",
          "type": "uint256"
        },
        {
          "indexed": false,
          "internalType": "uint256",
          "name": "toTokenId",
          "type": "uint256"
        },
        {
          "indexed": true,
          "internalType": "address",
          "name": "from",
          "type": "address"
        },
        {
          "indexed": true,
          "internalType": "address",
          "name": "to",
          "type": "address"
        }
      ],
      "name": "ConsecutiveTransfer",
      "type": "event"
    },
    {
      "anonymous": false,
      "inputs": [
        {
          "indexed": true,
          "internalType": "address",
          "name": "from",
          "type": "address"
        },
        {
          "indexed": true,
          "internalType": "address",
          "name": "to",
          "type": "address"
        },
        {
          "indexed": true,
          "internalType": "uint256",
          "name": "tokenId",
          "type": "uint256"
        }
      ],
      "name": "Transfer",
      "type": "event"
    },
    {
      "inputs": [
        {
          "internalType": "address",
          "name": "to",
          "type": "address"
        },
        {
          "internalType": "uint256",
          "name": "tokenId",
          "type": "uint256"
        }
      ],
      "name": "approve",
      "outputs": [],
      "stateMutability": "payable",
      "type": "function"
    },
    {
      "inputs": [
        {
          "internalType": "address",
          "name": "owner",
          "type": "address"
        }
      ],
      "name": "balanceOf",
      "outputs": [
        {
          "internalType": "uint256",
          "name": "",
          "type": "uint256"
        }
      ],
      "stateMutability": "view",
      "type": "function"
    },
    {
      "inputs": [
        {
          "internalType": "uint256",
          "name": "tokenId",
          "type": "uint256"
        }
      ],
      "name": "getApproved",
      "outputs": [
        {
          "internalType": "address",
          "name": "",
          "type": "address"
        }
      ],
      "stateMutability": "view",
      "type": "function"
    },
    {
      "inputs": [],
      "name": "getDescription",
      "outputs": [
        {
          "internalType": "string",
          "name": "",
          "type": "string"
        }
      ],
      "stateMutability": "view",
      "type": "function"
    },
    {
      "inputs": [
        {
          "internalType": "address",
          "name": "owner",
          "type": "address"
        },
        {
          "internalType": "address",
          "name": "operator",
          "type": "address"
        }
      ],
      "name": "isApprovedForAll",
      "outputs": [
        {
          "internalType": "bool",
          "name": "",
          "type": "bool"
        }
      ],
      "stateMutability": "view",
      "type": "function"
    },
    {
      "inputs": [],
      "name": "maxQuantity",
      "outputs": [
        {
          "internalType": "uint256",
          "name": "",
          "type": "uint256"
        }
      ],
      "stateMutability": "view",
      "type": "function"
    },
    {
      "inputs": [
        {
          "internalType": "uint256",
          "name": "quantity",
          "type": "uint256"
        }
      ],
      "name": "mint",
      "outputs": [],
      "stateMutability": "payable",
      "type": "function"
    },
    {
      "inputs": [],
      "name": "name",
      "outputs": [
        {
          "internalType": "string",
          "name": "",
          "type": "string"
        }
      ],
      "stateMutability": "view",
      "type": "function"
    },
    {
      "inputs": [],
      "name": "owner",
      "outputs": [
        {
          "internalType": "address",
          "name": "",
          "type": "address"
        }
      ],
      "stateMutability": "view",
      "type": "function"
    },
    {
      "inputs": [
        {
          "internalType": "uint256",
          "name": "tokenId",
          "type": "uint256"
        }
      ],
      "name": "ownerOf",
      "outputs": [
        {
          "internalType": "address",
          "name": "",
          "type": "address"
        }
      ],
      "stateMutability": "view",
      "type": "function"
    },
    {
      "inputs": [],
      "name": "pintacloudURI",
      "outputs": [
        {
          "internalType": "string",
          "name": "",
          "type": "string"
        }
      ],
      "stateMutability": "view",
      "type": "function"
    },
    {
      "inputs": [],
      "name": "prompt",
      "outputs": [
        {
          "internalType": "string",
          "name": "",
          "type": "string"
        }
      ],
      "stateMutability": "view",
      "type": "function"
    },
    {
      "inputs": [
        {
          "internalType": "address",
          "name": "from",
          "type": "address"
        },
        {
          "internalType": "address",
          "name": "to",
          "type": "address"
        },
        {
          "internalType": "uint256",
          "name": "tokenId",
          "type": "uint256"
        }
      ],
      "name": "safeTransferFrom",
      "outputs": [],
      "stateMutability": "payable",
      "type": "function"
    },
    {
      "inputs": [
        {
          "internalType": "address",
          "name": "from",
          "type": "address"
        },
        {
          "internalType": "address",
          "name": "to",
          "type": "address"
        },
        {
          "internalType": "uint256",
          "name": "tokenId",
          "type": "uint256"
        },
        {
          "internalType": "bytes",
          "name": "_data",
          "type": "bytes"
        }
      ],
      "name": "safeTransferFrom",
      "outputs": [],
      "stateMutability": "payable",
      "type": "function"
    },
    {
      "inputs": [
        {
          "internalType": "address",
          "name": "operator",
          "type": "address"
        },
        {
          "internalType": "bool",
          "name": "approved",
          "type": "bool"
        }
      ],
      "name": "setApprovalForAll",
      "outputs": [],
      "stateMutability": "nonpayable",
      "type": "function"
    },
    {
      "inputs": [
        {
          "internalType": "bytes4",
          "name": "interfaceId",
          "type": "bytes4"
        }
      ],
      "name": "supportsInterface",
      "outputs": [
        {
          "internalType": "bool",
          "name": "",
          "type": "bool"
        }
      ],
      "stateMutability": "view",
      "type": "function"
    },
    {
      "inputs": [],
      "name": "symbol",
      "outputs": [
        {
          "internalType": "string",
          "name": "",
          "type": "string"
        }
      ],
      "stateMutability": "view",
      "type": "function"
    },
    {
      "inputs": [
        {
          "internalType": "uint256",
          "name": "tokenId",
          "type": "uint256"
        }
      ],
      "name": "tokenURI",
      "outputs": [
        {
          "internalType": "string",
          "name": "",
          "type": "string"
        }
      ],
      "stateMutability": "view",
      "type": "function"
    },
    {
      "inputs": [],
      "name": "totalSupply",
      "outputs": [
        {
          "internalType": "uint256",
          "name": "",
          "type": "uint256"
        }
      ],
      "stateMutability": "view",
      "type": "function"
    },
    {
      "inputs": [
        {
          "internalType": "address",
          "name": "from",
          "type": "address"
        },
        {
          "internalType": "address",
          "name": "to",
          "type": "address"
        },
        {
          "internalType": "uint256",
          "name": "tokenId",
          "type": "uint256"
        }
      ],
      "name": "transferFrom",
      "outputs": [],
      "stateMutability": "payable",
      "type": "function"
    }
  ],
  "bytecode": "0x608060405260056009556040518060800160405280605181526020016200265960519139600a9081620000339190620003dc565b5060405180610100016040528060d181526020016200258860d19139600b90816200005f9190620003dc565b503480156200006d57600080fd5b506040518060400160405280600581526020017f416e696d650000000000000000000000000000000000000000000000000000008152506040518060400160405280600281526020017f41490000000000000000000000000000000000000000000000000000000000008152508160029081620000eb9190620003dc565b508060039081620000fd9190620003dc565b506200010e6200015d60201b60201c565b600081905550505033600860006101000a81548173ffffffffffffffffffffffffffffffffffffffff021916908373ffffffffffffffffffffffffffffffffffffffff160217905550620004c3565b600090565b600081519050919050565b7f4e487b7100000000000000000000000000000000000000000000000000000000600052604160045260246000fd5b7f4e487b7100000000000000000000000000000000000000000000000000000000600052602260045260246000fd5b60006002820490506001821680620001e457607f821691505b602082108103620001fa57620001f96200019c565b5b50919050565b60008190508160005260206000209050919050565b60006020601f8301049050919050565b600082821b905092915050565b600060088302620002647fffffffffffffffffffffffffffffffffffffffffffffffffffffffffffffffff8262000225565b62000270868362000225565b95508019841693508086168417925050509392505050565b6000819050919050565b6000819050919050565b6000620002bd620002b7620002b18462000288565b62000292565b62000288565b9050919050565b6000819050919050565b620002d9836200029c565b620002f1620002e882620002c4565b84845462000232565b825550505050565b600090565b62000308620002f9565b62000315818484620002ce565b505050565b5b818110156200033d5762000331600082620002fe565b6001810190506200031b565b5050565b601f8211156200038c57620003568162000200565b620003618462000215565b8101602085101562000371578190505b62000389620003808562000215565b8301826200031a565b50505b505050565b600082821c905092915050565b6000620003b16000198460080262000391565b1980831691505092915050565b6000620003cc83836200039e565b9150826002028217905092915050565b620003e78262000162565b67ffffffffffffffff8111156200040357620004026200016d565b5b6200040f8254620001cb565b6200041c82828562000341565b600060209050601f8311600181146200045457600084156200043f578287015190505b6200044b8582620003be565b865550620004bb565b601f198416620004648662000200565b60005b828110156200048e5784890151825560018201915060208501945060208101905062000467565b86831015620004ae5784890151620004aa601f8916826200039e565b8355505b6001600288020188555050505b505050505050565b6120b580620004d36000396000f3fe60806040526004361061011f5760003560e01c80637c65d711116100a0578063b88d4fde11610064578063b88d4fde146103b3578063c87b56dd146103cf578063e640cf7d1461040c578063e985e9c514610437578063f7e10692146104745761011f565b80637c65d711146102ed5780638da5cb5b1461031857806395d89b4114610343578063a0712d681461036e578063a22cb4651461038a5761011f565b80631a092541116100e75780631a0925411461021057806323b872dd1461023b57806342842e0e146102575780636352211e1461027357806370a08231146102b05761011f565b806301ffc9a71461012457806306fdde0314610161578063081812fc1461018c578063095ea7b3146101c957806318160ddd146101e5575b600080fd5b34801561013057600080fd5b5061014b6004803603810190610146919061182d565b61049f565b6040516101589190611875565b60405180910390f35b34801561016d57600080fd5b50610176610531565b6040516101839190611920565b60405180910390f35b34801561019857600080fd5b506101b360048036038101906101ae9190611978565b6105c3565b6040516101c091906119e6565b60405180910390f35b6101e360048036038101906101de9190611a2d565b610642565b005b3480156101f157600080fd5b506101fa610786565b6040516102079190611a7c565b60405180910390f35b34801561021c57600080fd5b5061022561079d565b6040516102329190611920565b60405180910390f35b61025560048036038101906102509190611a97565b61082f565b005b610271600480360381019061026c9190611a97565b610b51565b005b34801561027f57600080fd5b5061029a60048036038101906102959190611978565b610b71565b6040516102a791906119e6565b60405180910390f35b3480156102bc57600080fd5b506102d760048036038101906102d29190611aea565b610b83565b6040516102e49190611a7c565b60405180910390f35b3480156102f957600080fd5b50610302610c3b565b60405161030f9190611920565b60405180910390f35b34801561032457600080fd5b5061032d610cc9565b60405161033a91906119e6565b60405180910390f35b34801561034f57600080fd5b50610358610cef565b6040516103659190611920565b60405180910390f35b61038860048036038101906103839190611978565b610d81565b005b34801561039657600080fd5b506103b160048036038101906103ac9190611b43565b610e75565b005b6103cd60048036038101906103c89190611cb8565b610f80565b005b3480156103db57600080fd5b506103f660048036038101906103f19190611978565b610ff3565b6040516104039190611920565b60405180910390f35b34801561041857600080fd5b50610421611091565b60405161042e9190611a7c565b60405180910390f35b34801561044357600080fd5b5061045e60048036038101906104599190611d3b565b611097565b60405161046b9190611875565b60405180910390f35b34801561048057600080fd5b5061048961112b565b6040516104969190611920565b60405180910390f35b60006301ffc9a760e01b827bffffffffffffffffffffffffffffffffffffffffffffffffffffffff191614806104fa57506380ac58cd60e01b827bffffffffffffffffffffffffffffffffffffffffffffffffffffffff1916145b8061052a5750635b5e139f60e01b827bffffffffffffffffffffffffffffffffffffffffffffffffffffffff1916145b9050919050565b60606002805461054090611daa565b80601f016020809104026020016040519081016040528092919081815260200182805461056c90611daa565b80156105b95780601f1061058e576101008083540402835291602001916105b9565b820191906000526020600020905b81548152906001019060200180831161059c57829003601f168201915b5050505050905090565b60006105ce826111b9565b610604576040517fcf4700e400000000000000000000000000000000000000000000000000000000815260040160405180910390fd5b6006600083815260200190815260200160002060000160009054906101000a900473ffffffffffffffffffffffffffffffffffffffff169050919050565b600061064d82610b71565b90508073ffffffffffffffffffffffffffffffffffffffff1661066e611218565b73ffffffffffffffffffffffffffffffffffffffff16146106d15761069a81610695611218565b611097565b6106d0576040517fcfb3b94200000000000000000000000000000000000000000000000000000000815260040160405180910390fd5b5b826006600084815260200190815260200160002060000160006101000a81548173ffffffffffffffffffffffffffffffffffffffff021916908373ffffffffffffffffffffffffffffffffffffffff160217905550818373ffffffffffffffffffffffffffffffffffffffff168273ffffffffffffffffffffffffffffffffffffffff167f8c5be1e5ebec7d5bd14f71427d1e84f3dd0314c0f7b2291e5b200ac8c7c3b92560405160405180910390a4505050565b6000610790611220565b6001546000540303905090565b6060600b80546107ac90611daa565b80601f01602080910402602001604051908101604052809291908181526020018280546107d890611daa565b80156108255780601f106107fa57610100808354040283529160200191610825565b820191906000526020600020905b81548152906001019060200180831161080857829003601f168201915b5050505050905090565b600061083a82611225565b90508373ffffffffffffffffffffffffffffffffffffffff168173ffffffffffffffffffffffffffffffffffffffff16146108a1576040517fa114810000000000000000000000000000000000000000000000000000000000815260040160405180910390fd5b6000806108ad846112f1565b915091506108c381876108be611218565b611318565b61090f576108d8866108d3611218565b611097565b61090e576040517f59c896be00000000000000000000000000000000000000000000000000000000815260040160405180910390fd5b5b600073ffffffffffffffffffffffffffffffffffffffff168573ffffffffffffffffffffffffffffffffffffffff1603610975576040517fea553b3400000000000000000000000000000000000000000000000000000000815260040160405180910390fd5b610982868686600161135c565b801561098d57600082555b600560008773ffffffffffffffffffffffffffffffffffffffff1673ffffffffffffffffffffffffffffffffffffffff168152602001908152602001600020600081546001900391905081905550600560008673ffffffffffffffffffffffffffffffffffffffff1673ffffffffffffffffffffffffffffffffffffffff1681526020019081526020016000206000815460010191905081905550610a5b85610a37888887611362565b7c02000000000000000000000000000000000000000000000000000000001761138a565b600460008681526020019081526020016000208190555060007c0200000000000000000000000000000000000000000000000000000000841603610ae15760006001850190506000600460008381526020019081526020016000205403610adf576000548114610ade578360046000838152602001908152602001600020819055505b5b505b838573ffffffffffffffffffffffffffffffffffffffff168773ffffffffffffffffffffffffffffffffffffffff167fddf252ad1be2c89b69c2b068fc378daa952ba7f163c4a11628f55a4df523b3ef60405160405180910390a4610b4986868660016113b5565b505050505050565b610b6c83838360405180602001604052806000815250610f80565b505050565b6000610b7c82611225565b9050919050565b60008073ffffffffffffffffffffffffffffffffffffffff168273ffffffffffffffffffffffffffffffffffffffff1603610bea576040517f8f4eb60400000000000000000000000000000000000000000000000000000000815260040160405180910390fd5b67ffffffffffffffff600560008473ffffffffffffffffffffffffffffffffffffffff1673ffffffffffffffffffffffffffffffffffffffff16815260200190815260200160002054169050919050565b600b8054610c4890611daa565b80601f0160208091040260200160405190810160405280929190818152602001828054610c7490611daa565b8015610cc15780601f10610c9657610100808354040283529160200191610cc1565b820191906000526020600020905b815481529060010190602001808311610ca457829003601f168201915b505050505081565b600860009054906101000a900473ffffffffffffffffffffffffffffffffffffffff1681565b606060038054610cfe90611daa565b80601f0160208091040260200160405190810160405280929190818152602001828054610d2a90611daa565b8015610d775780601f10610d4c57610100808354040283529160200191610d77565b820191906000526020600020905b815481529060010190602001808311610d5a57829003601f168201915b5050505050905090565b600860009054906101000a900473ffffffffffffffffffffffffffffffffffffffff1673ffffffffffffffffffffffffffffffffffffffff163373ffffffffffffffffffffffffffffffffffffffff1614610e11576040517f08c379a0000000000000000000000000000000000000000000000000000000008152600401610e0890611e4d565b60405180910390fd5b60095481610e1d610786565b610e279190611e9c565b1115610e68576040517f08c379a0000000000000000000000000000000000000000000000000000000008152600401610e5f90611f1c565b60405180910390fd5b610e7233826113bb565b50565b8060076000610e82611218565b73ffffffffffffffffffffffffffffffffffffffff1673ffffffffffffffffffffffffffffffffffffffff16815260200190815260200160002060008473ffffffffffffffffffffffffffffffffffffffff1673ffffffffffffffffffffffffffffffffffffffff16815260200190815260200160002060006101000a81548160ff0219169083151502179055508173ffffffffffffffffffffffffffffffffffffffff16610f2f611218565b73ffffffffffffffffffffffffffffffffffffffff167f17307eab39ab6107e8899845ad3d59bd9653f200f220920489ca2b5937696c3183604051610f749190611875565b60405180910390a35050565b610f8b84848461082f565b60008373ffffffffffffffffffffffffffffffffffffffff163b14610fed57610fb684848484611576565b610fec576040517fd1a57ed600000000000000000000000000000000000000000000000000000000815260040160405180910390fd5b5b50505050565b6060610ffe826111b9565b611034576040517fa14c4b5000000000000000000000000000000000000000000000000000000000815260040160405180910390fd5b600061103e6116c6565b9050600081510361105e5760405180602001604052806000815250611089565b8061106884611758565b604051602001611079929190611f78565b6040516020818303038152906040525b915050919050565b60095481565b6000600760008473ffffffffffffffffffffffffffffffffffffffff1673ffffffffffffffffffffffffffffffffffffffff16815260200190815260200160002060008373ffffffffffffffffffffffffffffffffffffffff1673ffffffffffffffffffffffffffffffffffffffff16815260200190815260200160002060009054906101000a900460ff16905092915050565b600a805461113890611daa565b80601f016020809104026020016040519081016040528092919081815260200182805461116490611daa565b80156111b15780601f10611186576101008083540402835291602001916111b1565b820191906000526020600020905b81548152906001019060200180831161119457829003601f168201915b505050505081565b6000816111c4611220565b111580156111d3575060005482105b8015611211575060007c0100000000000000000000000000000000000000000000000000000000600460008581526020019081526020016000205416145b9050919050565b600033905090565b600090565b60008082905080611234611220565b116112ba576000548110156112b95760006004600083815260200190815260200160002054905060007c01000000000000000000000000000000000000000000000000000000008216036112b7575b600081036112ad576004600083600190039350838152602001908152602001600020549050611283565b80925050506112ec565b505b5b6040517fdf2d9b4200000000000000000000000000000000000000000000000000000000815260040160405180910390fd5b919050565b60008060006006600085815260200190815260200160002090508092508254915050915091565b600073ffffffffffffffffffffffffffffffffffffffff8316925073ffffffffffffffffffffffffffffffffffffffff821691508382148383141790509392505050565b50505050565b60008060e883901c905060e86113798686846117a8565b62ffffff16901b9150509392505050565b600073ffffffffffffffffffffffffffffffffffffffff83169250814260a01b178317905092915050565b50505050565b600080549050600082036113fb576040517fb562e8dd00000000000000000000000000000000000000000000000000000000815260040160405180910390fd5b611408600084838561135c565b600160406001901b178202600560008573ffffffffffffffffffffffffffffffffffffffff1673ffffffffffffffffffffffffffffffffffffffff1681526020019081526020016000206000828254019250508190555061147f836114706000866000611362565b611479856117b1565b1761138a565b6004600083815260200190815260200160002081905550600080838301905073ffffffffffffffffffffffffffffffffffffffff85169150828260007fddf252ad1be2c89b69c2b068fc378daa952ba7f163c4a11628f55a4df523b3ef600080a4600183015b81811461152057808360007fddf252ad1be2c89b69c2b068fc378daa952ba7f163c4a11628f55a4df523b3ef600080a46001810190506114e5565b506000820361155b576040517f2e07630000000000000000000000000000000000000000000000000000000000815260040160405180910390fd5b80600081905550505061157160008483856113b5565b505050565b60008373ffffffffffffffffffffffffffffffffffffffff1663150b7a0261159c611218565b8786866040518563ffffffff1660e01b81526004016115be9493929190611ff1565b6020604051808303816000875af19250505080156115fa57506040513d601f19601f820116820180604052508101906115f79190612052565b60015b611673573d806000811461162a576040519150601f19603f3d011682016040523d82523d6000602084013e61162f565b606091505b50600081510361166b576040517fd1a57ed600000000000000000000000000000000000000000000000000000000815260040160405180910390fd5b805181602001fd5b63150b7a0260e01b7bffffffffffffffffffffffffffffffffffffffffffffffffffffffff1916817bffffffffffffffffffffffffffffffffffffffffffffffffffffffff191614915050949350505050565b6060600a80546116d590611daa565b80601f016020809104026020016040519081016040528092919081815260200182805461170190611daa565b801561174e5780601f106117235761010080835404028352916020019161174e565b820191906000526020600020905b81548152906001019060200180831161173157829003601f168201915b5050505050905090565b606060a060405101806040526020810391506000825281835b60011561179357600184039350600a81066030018453600a8104905080611771575b50828103602084039350808452505050919050565b60009392505050565b60006001821460e11b9050919050565b6000604051905090565b600080fd5b600080fd5b60007fffffffff0000000000000000000000000000000000000000000000000000000082169050919050565b61180a816117d5565b811461181557600080fd5b50565b60008135905061182781611801565b92915050565b600060208284031215611843576118426117cb565b5b600061185184828501611818565b91505092915050565b60008115159050919050565b61186f8161185a565b82525050565b600060208201905061188a6000830184611866565b92915050565b600081519050919050565b600082825260208201905092915050565b60005b838110156118ca5780820151818401526020810190506118af565b60008484015250505050565b6000601f19601f8301169050919050565b60006118f282611890565b6118fc818561189b565b935061190c8185602086016118ac565b611915816118d6565b840191505092915050565b6000602082019050818103600083015261193a81846118e7565b905092915050565b6000819050919050565b61195581611942565b811461196057600080fd5b50565b6000813590506119728161194c565b92915050565b60006020828403121561198e5761198d6117cb565b5b600061199c84828501611963565b91505092915050565b600073ffffffffffffffffffffffffffffffffffffffff82169050919050565b60006119d0826119a5565b9050919050565b6119e0816119c5565b82525050565b60006020820190506119fb60008301846119d7565b92915050565b611a0a816119c5565b8114611a1557600080fd5b50565b600081359050611a2781611a01565b92915050565b60008060408385031215611a4457611a436117cb565b5b6000611a5285828601611a18565b9250506020611a6385828601611963565b9150509250929050565b611a7681611942565b82525050565b6000602082019050611a916000830184611a6d565b92915050565b600080600060608486031215611ab057611aaf6117cb565b5b6000611abe86828701611a18565b9350506020611acf86828701611a18565b9250506040611ae086828701611963565b9150509250925092565b600060208284031215611b0057611aff6117cb565b5b6000611b0e84828501611a18565b91505092915050565b611b208161185a565b8114611b2b57600080fd5b50565b600081359050611b3d81611b17565b92915050565b60008060408385031215611b5a57611b596117cb565b5b6000611b6885828601611a18565b9250506020611b7985828601611b2e565b9150509250929050565b600080fd5b600080fd5b7f4e487b7100000000000000000000000000000000000000000000000000000000600052604160045260246000fd5b611bc5826118d6565b810181811067ffffffffffffffff82111715611be457611be3611b8d565b5b80604052505050565b6000611bf76117c1565b9050611c038282611bbc565b919050565b600067ffffffffffffffff821115611c2357611c22611b8d565b5b611c2c826118d6565b9050602081019050919050565b82818337600083830152505050565b6000611c5b611c5684611c08565b611bed565b905082815260208101848484011115611c7757611c76611b88565b5b611c82848285611c39565b509392505050565b600082601f830112611c9f57611c9e611b83565b5b8135611caf848260208601611c48565b91505092915050565b60008060008060808587031215611cd257611cd16117cb565b5b6000611ce087828801611a18565b9450506020611cf187828801611a18565b9350506040611d0287828801611963565b925050606085013567ffffffffffffffff811115611d2357611d226117d0565b5b611d2f87828801611c8a565b91505092959194509250565b60008060408385031215611d5257611d516117cb565b5b6000611d6085828601611a18565b9250506020611d7185828601611a18565b9150509250929050565b7f4e487b7100000000000000000000000000000000000000000000000000000000600052602260045260246000fd5b60006002820490506001821680611dc257607f821691505b602082108103611dd557611dd4611d7b565b5b50919050565b7f4f6e6c7920746865206f776e65722063616e206d696e74206e657720746f6b6560008201527f6e73000000000000000000000000000000000000000000000000000000000000602082015250565b6000611e3760228361189b565b9150611e4282611ddb565b604082019050919050565b60006020820190508181036000830152611e6681611e2a565b9050919050565b7f4e487b7100000000000000000000000000000000000000000000000000000000600052601160045260246000fd5b6000611ea782611942565b9150611eb283611942565b9250828201905080821115611eca57611ec9611e6d565b5b92915050565b7f457863656564656420746865206c696d69740000000000000000000000000000600082015250565b6000611f0660128361189b565b9150611f1182611ed0565b602082019050919050565b60006020820190508181036000830152611f3581611ef9565b9050919050565b600081905092915050565b6000611f5282611890565b611f5c8185611f3c565b9350611f6c8185602086016118ac565b80840191505092915050565b6000611f848285611f47565b9150611f908284611f47565b91508190509392505050565b600081519050919050565b600082825260208201905092915050565b6000611fc382611f9c565b611fcd8185611fa7565b9350611fdd8185602086016118ac565b611fe6816118d6565b840191505092915050565b600060808201905061200660008301876119d7565b61201360208301866119d7565b6120206040830185611a6d565b81810360608301526120328184611fb8565b905095945050505050565b60008151905061204c81611801565b92915050565b600060208284031215612068576120676117cb565b5b60006120768482850161203d565b9150509291505056fea26469706673582212204be5e138e182cd7ba8c61ee0abba7b8083f0fe21ba95a23ec392188733c9e4a164736f6c63430008120033457870657269656e636520746865207768696d736963616c20776f726c64206f662041492d67656e65726174656420696d6167657320696e206f75722068696c6172696f757320616e696d6174696f6e2073657269657321205761746368206173206172746966696369616c20696e74656c6c6967656e636520756e6c6561736865732069747320637265617469766974792c206272696e67696e6720746f206c69666520612072696f74206f662066756e6e7920616e6420656e7465727461696e696e6720636861726163746572732e68747470733a2f2f676174657761792e70696e6174612e636c6f75642f697066732f516d5a65366852324d70355a7a3236685544397673696878527a42463564534a586e76693256584554476e7374462f",
  "linkReferences": {},
  "deployedLinkReferences": {}
}